:020000040800F2
:10000000480A002035020008ED310008E5310008FB
:10001000E9310008B71B0008853700080000000020
:10002000000000000000000000000000193200087D
:10003000BB1B000800000000EF3100081B32000865
:100040004B0200084B0200084B0200084B0200085C
:100050004B0200084B0200084B0200084B0200084C
:100060004B0200084B0200084B0200084B0200083C
:100070004B0200084B0200084B0200084B0200082C
:100080004B0200084B0200084B0200084B0200081C
:100090004B0200084B0200084B0200084B0200080C
:1000A0004B0200084B0200084B0200084B020008FC
:1000B000253200084B0200084B0200084B020008E2
:1000C0004B0200084B0200084B0200084B020008DC
:1000D0004B020008613700084B0200084B02000881
:1000E0004B0200084B0200084B02000800F002F827
:1000F00000F090F80AA090E8000C82448344AAF132
:100100000107DA4501D100F085F8AFF2090EBAE82F
:100110000F0013F0010F18BFFB1A43F0010318473B
:10012000C8480000E8480000103A24BF78C878C1E9
:10013000FAD8520724BF30C830C144BF04680C60ED
:10014000704700000023002400250026103A28BF35
:1001500078C1FBD8520728BF30C148BF0B60704739
:100160006E2900F07D82702900F0D583662904F0A5
:10017000AB83652904F0A883672904F0A58361296E
:1001800004F0A48303681B0A28BF41F08001692999
:1001900000F02A82642900F02782752900F0248269
:1001A0006F2900F06383782900F0A183E92900F02A
:1001B000FD82E42900F0FA82F52900F0F782EF29A8
:1001C00000F06083F82900F0A0830368DB0928BFF2
:1001D00041F08001632900F07E82732900F0838260
:1001E000E32900F0D787F32900F0DC87002070476F
:1001F0001FB501F029F804000020002104F04EFB97
:10020000401C60600020002104F032FBE0601FBD54
:1002100010B510BD00F0EAFF1146FFF7E9FF03F04B
:1002200005FD01F0C3F803B4FFF7F2FF03BC03F0D0
:10023000E2FA000008480047FEE7FEE7FEE7FEE7B7
:10024000FEE7FEE7FEE7FEE7FEE7FEE703480449B8
:10025000024A044B70470000ED00000848060020E9
:10026000480A0020480600207047B2F120030AD552
:10027000C2F1200320FA02F001FA03F321FA02F19D
:1002800040EA0300704721FA03F04FF00001704785
:100290001CB50C46064B7B4469460090204600F096
:1002A000F8F904460020694600F006FA20461CBD15
:1002B0001F0400000FB41CB5084B06AA7B44694616
:1002C0000090059800F0E5F904460020694600F02A
:1002D000F3F920461CBC5DF814FB0000F903000094
:1002E00070B50C460546012A05D02878800600D551
:1002F000EA69002302E0012305E05B1C934202D27D
:10030000E05C0028F9D1A869E618C01AA861286A3B
:1003100018442862284600F02DF904E0D5E90121AF
:1003200014F8010B9047B442F8D3284600F038F98E
:1003300070BD00002DE9F05F894604464FF0000AC9
:10034000DFF874B1FB44C0F820A02046E16888477C
:10035000002874D0252806D0D4E901219047206ACE
:10036000401C2062F1E700265F462046E16888478E
:100370002028054607DB312D05D2781910F8200C0E
:1003800008B10643F1E7B00701D526F00406C4F82A
:100390001CA00027C4F818A02A2D09D0284603F075
:1003A00023FA38B304EB8708303DC8F8185019E039
:1003B00059F8041B204604EB87029161E1688847E5
:1003C000012F054618D1E069002820DA26F0200622
:1003D0001DE0D8F8180000EB800005EB4000303835
:1003E000C8F818002046E1688847054603F0FCF984
:1003F0000028EED1012F0AD02E2D08D12046E16829
:1004000088477F1C0546022F46F02006C4DBA06902
:10041000002803DA404246F00106A061F00701D04F
:1004200026F010066C2D0BD0682D09D04C2D39D03C
:100430006A2D35D0742D35D07A2D33D016E038E0C2
:10044000E1682F4620468847B842054609D16C2FFF
:1004500026D04FF48060E168064320468847054671
:1004600004E06C2F1AD04FF4807006430DB3A5F151
:100470004100192802D8203546F400664A4629462C
:10048000204626604E46FFF76BFE80B101280BD058
:10049000F61D26F0070000F1080956E74020E4E7C2
:1004A0008020D8E70020D6E706F104094DE728466A
:1004B00052E7206ABDE8F09FA045000030B5054630
:1004C0000B462A4613F8014B12F8010B08B1A04263
:1004D000F8D01CB1002802D06D1CF1E7284630BDD1
:1004E00010B5431C02E010F8011B71B18107FAD16D
:1004F0004FF0013202C88C1A8C4314EAC211F9D0B1
:10050000C01A0A0603D0C01E10BDC01A10BD0A04CE
:1005100001D0801E10BD0902FCD0401E10BD4FF05E
:10052000000200B5134694469646203922BFA0E843
:100530000C50A0E80C50B1F12001BFF4F7AF09074F
:1005400028BFA0E80C5048BF0CC05DF804EB890040
:1005500028BF40F8042B08BF704748BF20F8022B83
:1005600011F0804F18BF00F8012B7047704770479B
:100570007047704770B5044685690068C10601D5AB
:10058000302600E02026C00707D070BDD4E9012145
:1005900030469047206A401C20626D1EF6D570BD23
:1005A00070B5044685690078C00707D170BDD4E9ED
:1005B000012120209047206A401C20626D1EF6D544
:1005C00070BD09684A0501D540B27047C905FCD520
:1005D00000B2704709684A0501D5C0B27047C90525
:1005E000FCD580B2704700002DE9F041064600249A
:1005F00010687529314616A510D0FFF7E2FF0028D4
:1006000002DA404213A507E031688A0701D512A536
:1006100002E0490704D511A5012401E0FFF7DAFF44
:1006200000210A2206F1240709E0B0FBF2FCB0FB2E
:10063000F2F302FB1C00303078541846491C0028A5
:10064000F3D123462A463046BDE8F04100F0B3B965
:10065000000000002D0000002B0000002000000022
:1006600011680268006A530501D508700AE0D305D5
:1006700001D5088006E0130603D5C217C1E90002C0
:1006800000E008600120704701694A1C0261087897
:10069000704700B58FB0CDE90131002105910549C2
:1006A0007944CDE9031011466846FFF743FE0FB0C9
:1006B00000BD0000E5FFFFFF0A6802F8010B0A60B9
:1006C000704710B5436913B1AFF3008001E0FFF745
:1006D00007FE012010BD127800F124010A700022EB
:1006E0004A700122EDE711684FF0FF32E9E70000A0
:1006F0002DE9FF5F15468A460446DFF8AC80F844D2
:100700000027D8E900103E46CDE9001010E03AF885
:1007100016106A4602A800F049FD411C07D0217856
:10072000890603D5E269391891420DD80744761C31
:100730002078800602D5E069B84205DDAE42E6DBEE
:100740003AF816000028E2D1A069C01BA06120463B
:10075000FFF710FFD8E90010CDE90010002017E0E6
:100760003AF818106A4602A800F020FDB0F1FF3FE9
:1007700081460BD000250DF1080B05E0D4E90121DD
:100780001BF8050090476D1C4D45F7D308F101009B
:10079000B0428046E4DB206A384420622046FFF7FE
:1007A000FFFEBDE8FF9F0000FA4100002DE9F04187
:1007B0008046D21D22F007020025D2E90002F52969
:1007C00015A614D0011E72F1000106DA0023D0EB49
:1007D000030063EB020211A608E0D8F800108B07B3
:1007E00001D50FA602E0490701D50EA60125114645
:1007F000002408F1240704E000F098F830323A555C
:10080000641C50EA0102F7D12B463246214640468D
:10081000BDE8F04100F0CFB8000000002D0000005E
:100820002B0000002000000030B4002100F124045F
:1008300008E002F00705D208303542EA4372DB08CF
:100840006554491C52EA0305F3D10468002310A241
:10085000250708D504F020040C4304D0C469012303
:100860000CA2641EC46130BC00F0A5B810B50446EB
:1008700021461068FFF7AEFE02462046BDE8104054
:100880000023D1E7D21D22F00701D1E90023CBE7F5
:100890000000000030000000F0B40D46018809059A
:1008A00002D5214C7C4402E01F4C7C440E340021D4
:1008B00000F1240608E002F00F071209E75D42EAA2
:1008C00003721B097754491C52EA0307F3D10278DB
:1008D0000023120704D5702D06D009B1022311346C
:1008E0002246F0BC00F067B801231034F8E770B579
:1008F00004460D4621461068FFF76CFE0246294665
:100900002046BDE870400023C6E7D21D22F0070351
:10091000D3E90023C0E70368126843F020030360B3
:100920000823C3610023B7E75C40000030B5B0F195
:100930000A024FEA900E71F100034EEA817EB0EB9D
:100940000E0061EB91014FEA101E4EEA017E10EBA2
:100950000E0041EB11114FEA102E4EEA016E10EB22
:100960000E0041EB11214FEA104E4EEA014E10EB02
:100970000E0041EB1141401841F100014FEAD00057
:1009800040EA41704FEAD10110EB80054FEA810443
:1009900044EA907444EB01046D1944EB0404521BC7
:1009A000A3414FF0000348BF0A3200D530BD401CC0
:1009B00041F1000130BD2DE9F0470D4699469246C0
:1009C000044600F124080168880604D5E06921F096
:1009D0001001216000E00120A84201DD471B00E07A
:1009E0000027A1697A1902EB0900081AA061207892
:1009F000C00602D42046FFF7BDFD002608E0D4E97A
:100A000001211AF806009047206A401C761C2062DB
:100A10004E45F4DB2078C0060AD52046FFF7AAFD34
:100A200006E0D4E9012130209047206A401C206272
:100A3000381EA7F10107F4DC07E0D4E9012118F81A
:100A400005009047206A401C2062281EA5F1010580
:100A5000F3DC2046FFF7A4FD2078000602D5022033
:100A6000BDE8F0870120FBE770472DE9FF4F0C46FA
:100A70001E464FF0FF378BB0D2E90001DDF86080F1
:100A80000A908A46C1F30A5505B93D460021084639
:100A90004FF00000BAF1000F00F4400005DA00EB5F
:100AA00080004FF4400101EA50004FEA9059B9F13B
:100AB000010F00DDB9460A9850EA4A000ED044F60C
:100AC0001050A5F2FF3545432F14B8F1000F1ED08A
:100AD0007542291E1EDDC9F100021CE0B8F1010FAC
:100AE0004FF0000001D0302103E0F24305E0215433
:100AF000401CB042FBDB30460022002121540B9900
:100B0000C1F80880C1E900200FB0BDE8F08FBD1B1F
:100B10006D1CDEE74A4600DA694206A800F0D8FB01
:100B200006AB93E8070003AB83E8070050460A9939
:100B300000F086FC8DE80700A0F500501F380090FB
:100B40000398002D09DD42F21F014A46084403A91B
:100B50000390684600F0E5FE08E0A0F500504A4624
:100B60001F3803A90390684600F0EFFE8DE80700E8
:100B70000004000C03D04FF0FF30410800E01046A5
:100B8000B8F1000F03D00022009215461EE0751E3A
:100B900005D4FFF7CBFE303262556D1EF9D5B34652
:100BA0000122084302D000227F1C04E02078302874
:100BB00001D100227F1E002A099786D01DE0112D49
:100BC00007DAFFF7B3FE303262556D1C50EA0102BE
:100BD000F5D1084302D00098C8B10EE00021681E8C
:100BE00005E0235C625C63542254401E491C814230
:100BF000F7DBAB46A81B401E0990002004F80B0051
:100C00000B98099AC0F80880C0E9002B7CE71126F0
:100C10004FF0000859E72DE9F04F88460446D21DF1
:100C200022F0070191B0D1E90001CDE90A0102F0FB
:100C3000ABFD02460B98C00F01D02D2007E02068C5
:100C4000810701D52B2002E0202101EAC000032A00
:100C5000099001D0072A05DB03464146204600F0F3
:100C6000F7FA0BE12078800601D5E06900E0062064
:100C7000B8F1650F814606D0B8F1660F18D0B8F10B
:100C8000670F70D131E00020B9F1110F009001DB46
:100C9000112301E009F101030AAA01A90CA8FFF739
:100CA000E4FEDDE90C70002609F10105834647E00A
:100CB00001204B4600904FF000470AAA01A90CA85A
:100CC000FFF7D3FEDDE90DB00C995D46002610B9A3
:100CD00009F101000D18B9EB050003D4C0F1FF368E
:100CE00009F10105A5EB09002BE0B9F1010F01DACB
:100CF0004FF001090020B9F1110F0090484601DDC5
:100D0000112300E003460AAA01A90CA8FFF7ADFED3
:100D1000DDE90C704D4600268346207800070AD492
:100D2000AB4500DA5D4601A8012D04DD411911F83B
:100D3000011C302907D04F4502DA17F1040F04DAFD
:100D4000012082460FE06D1EEEE7002F02DCED1B56
:100D50003E4403E0781CA84200DD7D1CB81B00F176
:100D6000010A4FF000472078000703D4AA4501DBB1
:100D70004FF0FF3A0021B7F1004F0DF143088DF815
:100D8000431024D002202B23002F01DA7F422D2391
:100D90000A21021EA0F1010000DC5FB197FBF1FC0B
:100DA00097FBF1F201FB1C7C17460CF1300C08F8A4
:100DB00001CDEEE7A8F1010003702188090501D5F6
:100DC000452100E06521A0F1010800F8011C099807
:100DD0000FA9A1EB0807FF1D00B10120411901EB8C
:100DE000EA70A1693844081A401EA0612078C00644
:100DF00002D42046FFF7BEFB099828B1D4E90121AF
:100E00009047206A401C20622078C00622D52046E8
:100E1000FFF7B0FB1EE0002E04DBB34502DD01A8A6
:100E2000805D00E03020D4E901219047206A401C19
:100E30002062761CAAF101005FEA000A0AD100F0E4
:100E400003FAC0680168405CD4E901219047206A38
:100E5000401C2062281EA5F10105DCDC07E0D4E976
:100E6000012118F8010B9047206A401C2062381EAF
:100E7000A7F10107F3DC2046FFF792FB032011B036
:100E800043E600002DE9F04F04460D46D21D22F046
:100E9000070089B0D0E9009248461746394602F06B
:100EA00073FC0246F80F01D02D2307E0206881076C
:100EB00001D52B2302E0202101EAC0038DF8203068
:100EC0000BB1012000E00020032A824601D0072A4E
:100ED00004DB2946204600F0BBF93DE1207880067E
:100EE00001D40D2500E0E569C7F30A560D2D49DA56
:100EF00000214FEA175B08464FF00000002F00F476
:100F0000400007DA00EB80004FF4400100EBD070A6
:100F100001EA60008115012901DD4FF0FF31002257
:100F20004FEA850CBCF1180F06D31346ACF118003C
:100F30004FF08052C24003E04FF4801323FA0CF3C9
:100F40000CF10C0CBCF1200F04D3ACF1200C09FA0D
:100F50000CF001E007FA0CF000294FF0004801DD29
:100F600018B90FE00ED140450CD319EB02095F41CF
:100F700021B9404502D19F4329EA0209BBEB175F23
:100F800000D0761C2088000502D57B48784402E01A
:100F900079487844193808AA302302F80A30037CCB
:100FA0000AF10101002E0AF1020A53546A4602DCDA
:100FB0004FF0300101E04FF031014FF001088DF8A2
:100FC000001002D0A6F2FF3603E059EA470100D034
:100FD0006A4E002D02DC2178090704D54FF0020883
:100FE0002E218DF80110C44600210BE0C7F3034306
:100FF0003F01C35C491C6D1E02F80830052908F149
:10100000010801DA002DF1DC00210CE000EB19737E
:10101000491C1B786D1E082902F808304FEA09198F
:1010200008F1010801DA002DF0DC2178890602D5EB
:1010300014E0A8F10108E04505DD02EB080111F814
:10104000011C3029F5D0B8F1000F07DD02EB0801D3
:1010500011F8011C2E2901D1A8F10108002D05DD90
:101060003E2102F808106D1E08F10108407C002E98
:1010700002F8080008F1010804DA2D20764202F88F
:10108000080002E02B2002F808000A214FF47A70D1
:10109000864208F101080BDB96FBF0F3303302F8CF
:1010A000083096FBF0F308F1010800FB136601E03D
:1010B000642E0CDB642096FBF0F3303302F808302A
:1010C00096FBF0F308F1010800FB136601E00A2E1D
:1010D00006DB96FBF1F0303002F8080008F1010859
:1010E00096FBF1F001FB1060303002F80800A169B6
:1010F00008F1010808EB050202EB0A00081AA061DA
:101100002078C00602D42046FFF734FA216A08AEE0
:1011100001EB0A00206204E0D4E9012116F8010B7A
:101120009047BAF1010AF7D22078C00602D52046CE
:10113000FFF720FA6E4609E016F8010B3E280FD0A3
:10114000D4E901219047206A401C2062B8F10108CF
:10115000F2D22046FFF724FA09B00320BDE8F08F51
:10116000206A2844206203E0D4E90121302090471E
:101170006D1EEBD3F8E70000AF39000002FCFFFF63
:1011800010B5436913B1AFF3008001E0FFF7B0FA87
:10119000012010BD128800F1240182840022C28443
:1011A0000122EDE711684FF0FF32E9E770B516460E
:1011B0000C46054600F040F8036893F80101012849
:1011C00006D0FF2C0FD8185D68B101202C7070BDBF
:1011D000D3F807013246214603F207130344284699
:1011E000BDE8704018474FF0FF3070BD754600F005
:1011F000E3F8AE4605006946534620F007008546F1
:1012000018B020B5FFF722F8BDE820404FF00006E7
:101210004FF000074FF000084FF0000B21F00701DE
:10122000AC46ACE8C009ACE8C009ACE8C009ACE821
:10123000C0098D467047000010B500F005F8001D8C
:1012400010BD00BF5936000000487047040600205A
:101250002DE9F0411F46044603260168072A01F4E0
:10126000006004DB08B116A505E016A503E008B18F
:1012700015A500E015A521F010002060A069C01E92
:10128000A0610FB1401EA0612046FFF773F94FB176
:10129000D4E9012138469047206A401C2062C01CD6
:1012A000206206E0206AFAE7D4E9012115F8010B73
:1012B0009047761EF8D22046FFF772F9BDE8F0811C
:1012C0004E414E006E616E00494E4600696E6600EA
:1012D0002DE9F047814616468AB0334878440DC858
:1012E0008DE80D0030487844801C03AC0DC884E8BC
:1012F0000D0041F69B300844372190FBF1F290FB42
:10130000F1F5A5F1800501FB12041B3C02D56442F6
:10131000012000E00020DFF890A080460027FA447A
:10132000AAF1BE0A0DE0E00709D03246684607EB95
:1013300047010AEB810100F008FB8DE8070064100B
:101340007F1C002CEFD1184F7F44AC3F18E0E8071A
:1013500014D007EB04100DF1180A90E80E008AE88B
:101360000E00C068F04201D198190890324606A9D3
:1013700003A800F0EAFA03AB83E807006D10641CD1
:10138000002DE4D132466946B8F1000F03A802D01F
:1013900000F0C7FA01E000F0D8FAC9E90001C9F885
:1013A00008200AB0BDE8F087F03600000446AFF32D
:1013B00000802046FEF737FF00487047E405002014
:1013C0004FF0013C50F8042B51F8043B9A4221D1D4
:1013D000A2EB0C03934313EACC1317D150F8042B60
:1013E00051F8043B9A4215D1A2EB0C03934313EA44
:1013F000CC130BD150F8042B51F8043B9A4209D17D
:10140000A2EB0C03934313EACC13DBD04FF00000A4
:10141000704700BFD01A01BAB1FA81F101F018018A
:1014200022FA01F0CB40C1F12001DBB2C0B2C01AF8
:101430002CFA01F3D11A914311EAC311E6D1704796
:101440005FEA400C08BF91F0000F4FEA8C234FEA8F
:10145000C12243EA51514FEA1C5018BF00F5F04039
:101460004FEA300018BF41F000415FEA6C5C00F0C9
:101470002980BCF1FF3F08BF40F080407047130C4B
:1014800006BF12044FF0100C4FF0000C130E04BFF7
:1014900012020CF1080C130F04BF12010CF1040C22
:1014A000930F04BF92000CF1020CD30F04BF520043
:1014B0000CF1010C11464FF00002A0F11F00A0EB4F
:1014C0000C00704711F0004F08BF704731F0004129
:1014D0003FF4D5AF0B0C06BF09044FF0100C4FF0D2
:1014E000000C0B0E04BF09020CF1080C0B0F04BF1B
:1014F00009010CF1040C8B0F04BF89000CF1020CE4
:10150000CB0F04BF49000CF1010CCCF12003A0EB80
:101510000C0022FA03F302FA0CF241EA030100F193
:101520000100704720F07F4C80EA030023F07F47E2
:10153000ACEB070303F57C5300F0004003F1FF031D
:101540002DE980494FEA154B09B44FEA144325EAC7
:101550000B4E24EA03480FF2042606EB1327490832
:101560003E785FEA320203FB0667C7F5000707FB18
:1015700006F64FEA54374FEAD64606F1020607FB55
:10158000066CCCF1005C4FEA1C472CEA074C07FBC9
:1015900006F40CFB06F504EB15464FEA961634BF2D
:1015A00000204FF000404FEAD13706FB07FC4FEA1E
:1015B0001C4C0CFB0BF7D21B03FB0CF761EB070178
:1015C0000CFB0EF7B0EB074072EB17420CFB08F771
:1015D00034BFA2EB0742B2EB074261EB17414FEA7F
:1015E0000C444FEA910706FB07FC4FEA1C4C0CFB2E
:1015F0000BF7B0EBC74072EB573203FB0CF734BF6D
:10160000A2EBC742B2EBC74261EB57310CFB0EF7BE
:10161000B0EBC70072EB57720CFB08F734BFA2EBBC
:10162000C702B2EBC70261EB5771039F4FEA8161BA
:1016300041EA921104EBCC044FEAD1374FEA8262BF
:1016400006FB07FC42EA90124FEA80604FEA1C4C0E
:101650000CFB0BF7D21B03FB0CF761EB07010CFB38
:101660000EF7B0EB074072EB17420CFB08F734BFE4
:10167000A2EB0742B2EB074261EB17414FEA8C55F0
:101680004FEA910704EB9C2406FB07FC4FEA1C4C35
:101690000CFB0BF7B0EBC74072EB573203FB0CF7B8
:1016A00034BFA2EBC742B2EBC74261EB57310CFB30
:1016B0000EF7B0EBC70072EB57720CFB08F734BFA4
:1016C000A2EBC702B2EBC70261EB577115EB4C25D9
:1016D0004FEA816141EA92114FEA82624FEAD137C3
:1016E00042EA901206FB07FC44F100044FEA8060D6
:1016F0004FEA1C4C0CFB0BF7D21B03FB0CF761EB06
:1017000007010CFB0EF7B0EB074072EB17420CFB26
:1017100008F734BFA2EB0742B2EB074261EB174177
:1017200015EB1C154FEA813141EA92414FEA8232B2
:1017300042EA90424FEA80304FEA0C7644F10004CE
:1017400048EA03434EEA0B484FF0000EB2EB080C98
:1017500071EB030724BF624639464EEB0E0E4FF085
:10176000000B0018524149414BEB0B0BB2EB080C3C
:1017700071EB03077BF1000B24BF624639464EEB49
:101780000E0E4FF0000B0018524149414BEB0B0B72
:10179000B2EB080C71EB03077BF1000B24BF624630
:1017A00039464EEB0E0E51EA020718BF46F001060D
:1017B00016EB0E7655F1000254F1000103D5BDE899
:1017C0008901BDE80088BDE88901BDE80048B61977
:1017D000524141EB0101A3F10103704780807F7EFC
:1017E0007D7C7B7A79787776767574737271717097
:1017F0006F6E6E6D6C6C6B6A6A6968686766666549
:101800006464636362616160605F5F5E5E5D5D5CD6
:101810005C5B5B5A5A595958585757565655555547
:101820005454535352525251515050504F4F4F4EA7
:101830004E4D4D4D4C4C4C4B4B4B4A4A4A494949F5
:101840004848484747474746464645454544444437
:10185000444343434342424242414141002B26D448
:10186000770021D01CB54FEA370703B44FF01000C2
:101870004FF010014FF000000FBCBDE810400BF11D
:10188000010BBBF1010F08BF5FEA170722BF12F17E
:10189000010211F101014FF0004143F1000300F09A
:1018A000004043EA00007047F9D35708DAE746EAF8
:1018B000064613F1400F4FEA16461FDD13F1200FC5
:1018C000DFBF16430A46002120335B42C8D0C3F174
:1018D000200746EA064602FA07F74FEA164646EAA6
:1018E0000706C3F1200722FA03F201FA07F721FAEB
:1018F00003F14FF0000342EA0702B1E746EA0206AD
:1019000046EA06464FEA164646EA0106BCBF46EAE4
:101910000646360C4FF000034FF000024FF0000176
:101920009EE72DE9C048934630B491E8380007C8D7
:1019300031EA400C48BF34EA430C03D5FFF7F2FD0F
:10194000FFF78CFFF0BCBDE800882DE9C048934646
:1019500030B491E8380007C810F0804F08BF13F08A
:10196000804F03D100F005F8FFF778FFF0BCBDE829
:10197000008820F07F4780EA030023F07F4C07EBCC
:101980000C03A3F57C5300F00040A3F1FE0392F09A
:10199000000F00F0B38095F0000F00F077802DE984
:1019A00001494FEA11404FEA144621EA004800FB82
:1019B00006FC24EA064708FB06F607FB08F800FBCE
:1019C00007F718EB06484CEB164C4FEA124B18EB96
:1019D00007484FEA15464CEB174022EA0B4E0BFB2B
:1019E00006FC25EA06470EFB06F607FB0EFE0BFB80
:1019F00007F71EEB064E4CEB164C4FF000061EEBA5
:101A0000074E4CEB174B18EB0B0840F1000018EB9E
:101A10000E0B58EB000840F100008F1A4FF0000148
:101A20003CBFC943661B14BFB5EB040C00213CBF8F
:101A3000C943F61B4FEA17444EEA8E0E27EA0445C7
:101A40004FEA1C4704FB07622CEA074C05FB07F72B
:101A50000CFB05F604FB0CFC16EB074642EB1742A9
:101A600016EB0C4642EB1C421BEB060658EB02023F
:101A7000414146EA9E0601D5BDE80189B6195241A9
:101A800041EB0101A3F10103BDE801894FEA1445CF
:101A90004FEA114724EA054621EA074C05FB07F403
:101AA00006FB07F70CFB06F105FB0CFC11EB0741ED
:101AB00044EB17444FEA124711EB0C4144EB1C4432
:101AC00022EA074C05FB07F206FB07F70CFB06F6BC
:101AD00005FB0CFC16EB074642EB174216EB0C46D7
:101AE00042EB1C456A1854F1000148BF7047B61913
:101AF000524141EB0101A3F10103704795F0000F42
:101B000037D04FEA11424FEA144721EA024624EA4D
:101B1000074C02FB07F106FB07F70CFB06F402FB80
:101B20000CFC14EB074441EB17414FEA154714EB4B
:101B30000C4441EB1C4125EA074C02FB07F506FB70
:101B400007F70CFB06F602FB0CFC16EB074645EB11
:101B5000174516EB0C4645EB1C42121951F10001DA
:101B600048BF7047B619524141EB0101A3F101038F
:101B700070474FEA14454FEA114724EA054621EA27
:101B8000074C05FB07F106FB07F70CFB06F24FF0CD
:101B9000000605FB0CFC12EB074241EB174112EB70
:101BA0000C4251EB1C4148BF7047921841EB0101B8
:101BB000A3F10103704700BFFEE770470021074A09
:101BC000D1610749096941F00401054A11611146D3
:101BD000096941F0400111617047000028000020B0
:101BE000002002400021074AD1610749096941F0FC
:101BF0000201054A116111464861096941F040013D
:101C00001161704728000020002002400022054B8F
:101C1000DA61054A126942F00102034B1A61018040
:101C200070470000280000200020024000201E49CC
:101C3000C96801F0100139B11C49C96941F00201BC
:101C40001A4AD16140F010001749C96801F0040137
:101C500039B11649C96941F00101144AD16140F016
:101C600004001149C96901F0010169B10F49C9694D
:101C700041F004010D4AD16100BF0B49C96921F04F
:101C80000101094AD16100BF00BF40F20111884241
:101C900006D10549C96921F00101034AD16101E07A
:101CA0000149C86000BF70470020024028000020A2
:101CB00070B5044600F092FB054609E0601C38B19F
:101CC00024B100F08BFB401BA04201D9032070BD62
:101CD0001248C06800F001000028EFD10F48C0682A
:101CE00000F0200020B100BF20200C49C86000BFD8
:101CF0000A48C06800F0100048B90848C06900F000
:101D0000010020B90548C06800F0040018B1FFF7D1
:101D10008DFF0120DBE70020D9E700000020024012
:101D200070B50446002594F82100022803D0042051
:101D3000A0630125C1E02068006820F00E00216842
:101D400008602068006820F00100216808605C4994
:101D50002068884252D95A4978392068884201D18E
:101D6000012047E0564964392068884201D110209B
:101D700040E0534950392068884201D1801539E04C
:101D80004F493C392068884201D1801432E04C49E7
:101D900028392068884202D14FF480302AE048492F
:101DA00014392068884202D14FF4801022E044495F
:101DB0002068884201D140041CE0424920688842E2
:101DC00001D1012016E03F4914312068884201D139
:101DD00010200FE03B4928312068884201D180154E
:101DE00008E038493C312068884201D1801401E084
:101DF0004FF480303349091F086051E03049783989
:101E00002068884201D1012047E02D4964392068CB
:101E1000884201D1102040E0294950392068884289
:101E200001D1801539E026493C392068884201D12A
:101E3000801432E0224928392068884202D14FF4C8
:101E400080302AE01E4914392068884202D14FF4BC
:101E5000801022E01A492068884201D140041CE029
:101E600018492068884201D1012016E01549143133
:101E70002068884201D110200FE0124928312068E3
:101E8000884201D1801508E00E493C312068884223
:101E900001D1801401E04FF4803009498039486055
:101EA000012084F8210000BF002084F8200000BF3A
:101EB000606B10B12046616B8847284670BD0000FA
:101EC00080000240080402402DE9F04104460E461D
:101ED0000127002500BF2648007E012802D10220EC
:101EE000BDE8F08101202249087600BF2068022861
:101EF00013D14CF25030FFF7DBFE90BB0120FFF70F
:101F00005DFE4CF25030FFF7D3FE074619480069DA
:101F100020F004001749086123E04CF25030FFF72D
:101F2000C7FEF0B94FF0FF303060A56812E02846D8
:101F3000FFF758FE4CF25030FFF7BAFE07460D4847
:101F4000006920F002000B4908610FB1356007E01D
:101F500005F50065D4E9021001EBC020A842E6D8DF
:101F600000BF00BF00200249087600BF3846B7E72F
:101F700028000020002002400348006940F0800053
:101F80000149086100207047002002402DE9FE4F02
:101F900005468B46174698460126002400200290ED
:101FA00000BF2448007E012802D10220BDE8FE8F38
:101FB00001202049087600BF4CF25030FFF778FE30
:101FC000064686BB012D02D10120029006E0022DBB
:101FD00002D10220029001E00420029000241EE0C1
:101FE0002201B946C24648465146FEF73EF980B244
:101FF0000190022000FB04B000900199FFF706FE5B
:102000004CF25030FFF754FE06460B48006920F0B2
:1020100001000949086106B104E0601CC4B20298DD
:102020008442DDDB00BF00BF00200249087600BF0C
:102030003046BBE72800002000200240002008496D
:10204000096901F0800151B10649054A516006490C
:1020500051601146096901F0800101B1012070470A
:102060000020024023016745AB89EFCD2DE9F847F9
:10207000024600239C467BE14FF0010808FA03F476
:10208000D1F8008008EA0400A0427DD1DFF8F4A274
:10209000D1F80480A8EB0A09D0453AD014DCB8F195
:1020A000030F50D009DCB8F1000F31D0B8F1010FA7
:1020B0001CD0B8F1020F49D120E0B8F1110F18D0AF
:1020C000B8F1120F42D11EE0B9F5881F25D006DC09
:1020D000B9F5803F20D0B9F5801F37D11AE0B9F5A6
:1020E000001F18D0B9F5041F30D117E0D1F80CC08B
:1020F0002DE0D1F80C8008F1040C28E0D1F80C8018
:1021000008F1080C23E0D1F80C8008F10C0C1EE05B
:1021100000BF00BF00BF00BF00BF00BFD1F80880F4
:10212000B8F1000F02D14FF0040C0BE0D1F8088099
:10213000B8F1010F03D14FF0080C146102E04FF029
:10214000080C546103E04FF0000C00E000BF00BF3A
:10215000FF2801D8904601E002F104084646FF2816
:1021600002D84FEA830803E0A3F108084FEA880881
:102170004746D6F800804FF00F0909FA07F928EA18
:1021800009080CFA07F900E07AE048EA0908C6F8FD
:102190000080D1F8048008F08058B8F1805F6FD1DA
:1021A00000BFDFF8E481D8F8188048F00108DFF8B4
:1021B000D891C9F81880C846D8F8188008F00108E6
:1021C000CDF8008000BF00BF4FEAB9384FEA93094D
:1021D00058F829504FEA83784FEA18794FF00F08E2
:1021E00008FA09F825EA0805DFF8A081424502D17E
:1021F0004FF0000824E0DFF89881424502D14FF00B
:1022000001081DE0DFF88C81424502D14FF0020841
:1022100016E0DFF88481424502D14FF003080FE059
:10222000DFF87881424502D14FF0040808E0DFF87A
:102230007081424502D14FF0050801E04FF00608D9
:102240004FEA83794FEA197908FA09F848EA05054F
:10225000DFF850814FEA930948F82950D1F80480FB
:1022600008F48038B8F5803F0BD1DFF83C81D8F80E
:10227000008048EA0008DFF83091C9F800800AE0E1
:1022800075E0DFF82481D8F8008028EA0008DFF83C
:102290001891C9F80080D1F8048008F40038B8F526
:1022A000003F0ED1DFF8008108F10408D8F8008063
:1022B00048EA0008DFF8F09009F10409C9F8008045
:1022C0000DE0DFF8E48008F10408D8F8008028EA7F
:1022D0000008DFF8D49009F10409C9F80080D1F8AA
:1022E000048008F48018B8F5801F0ED1DFF8B8809C
:1022F00008F10808D8F8008048EA0008DFF8A8903C
:1023000009F10809C9F800800DE0DFF89C8008F1A8
:102310000808D8F8008028EA0008DFF88C9009F156
:102320000809C9F80080D1F8048008F40018B8F54D
:10233000001F0ED1DFF8708008F10C08D8F800807B
:1023400048EA0008DFF8609009F10C09C9F800803C
:102350000DE0DFF8548008F10C08D8F8008028EA76
:102360000008DFF8449009F10C09C9F800805B1CF3
:10237000D1F8008028FA03F8B8F1000F7FF47CAEA2
:10238000BDE8F8870000111000100240000801406D
:10239000000C0140001001400014014000180140F1
:1023A000001C0140080001400004014002469368FF
:1023B0000B400BB1012000E00020704710B5C2684F
:1023C00021EA020302EA010443EA0443036110BD67
:1023D0000AB1016101E00B04036170470148006824
:1023E000704700001000002070B504460CB90120B1
:1023F00070BD4CF6CC402168086045F2555021680C
:102400000860D4E9001048602168A0688860FFF780
:10241000E5FF054606E0FFF7E1FF401B262801D94E
:102420000320E5E72068C0680028F4D14AF6AA2016
:10243000216808600020DBE701464AF6AA200A6806
:1024400010600020704700000348006803490978C5
:10245000084401490860704710000020180000205F
:1024600010B50848006840F01000064908600520D3
:1024700000F080F80F2000F007F800F02BF80020A3
:1024800010BD00000020024070B504460E480078E0
:102490004FF47A71B1FBF0F00C490968B1FBF0F52B
:1024A000284600F0E3FB08B1012070BD102C07D2D4
:1024B00000222146501E00F01EF80548046001E08D
:1024C0000120F2E70020F0E7180000200C000020B7
:1024D00014000020704701460846002809DB00F080
:1024E0001F0301229A4043099B0003F1E023C3F834
:1024F000002100BF70472DE9F05F80460D4616466B
:10250000002701F055F9074639462A46334601F0BF
:102510000700C0F1070ABAF1040F02D94FF0040A0C
:1025200001E0C0F1070AD14600F1040ABAF1070F31
:1025300002D24FF0000A01E0A0F1030AD4464FF0A6
:10254000010A0AFA09FAAAF1010A0AEA020A0AFACF
:102550000CFA4FF0010B0BFA0CFBABF1010B0BEA81
:10256000030B4AEA0B042146404601F029F9BDE875
:10257000F09F000000BF00F00702064B19684FF6FD
:10258000FF031940044B0B4343EA0221014B19603E
:1025900000BF70470CED00E00000FA0570B504467E
:1025A0000D460CB9012070BD5A48006800F00700C4
:1025B000A8420ED25748006820F00700284355492A
:1025C00008600846006800F00700A84201D001201A
:1025D000E9E7207800F0020002281DD1207800F001
:1025E0000400042805D14C48406840F4E0604A49A2
:1025F0004860207800F00800082805D14648406867
:1026000040F46050444948604348406820F0F0007E
:10261000A168084340494860207800F0010078B381
:102620006068012806D13C48006800F4003090B989
:102630000120B8E76068022806D13748006800F03A
:10264000007040B90120AEE73348006800F0020096
:1026500008B90120A7E73048406820F0030061680E
:1026600008432D494860FFF7B9FE064609E0FFF729
:10267000B5FE801B41F28831884202D9032092E7DF
:1026800007E02548406800F00C006168B0EB810F5E
:10269000EDD12048006800F00700A8420ED91D487F
:1026A000006820F0070028431A49086008460068BF
:1026B00000F00700A84201D0012074E7207800F064
:1026C0000400042807D11448406820F4E060E16861
:1026D000084311494860207800F00800082808D114
:1026E0000D48406820F46050216940EAC1000A4961
:1026F000486000F03FF808494968C1F30311074AF0
:10270000515CC8400649086006480068FFF7BCFEF7
:10271000002048E70020024000100240D048000896
:102720000C000020140000200148006870470000E1
:102730000C00002000B5FFF7F7FF04494968C1F31A
:102740000221034A515CC84000BD00000010024055
:10275000E048000800B5FFF7E7FF04494968C1F306
:10276000C221034A515CC84000BD00000010024075
:10277000E0480008F0B585B00FF26C0C9CE8E01062
:1027800001A8A0E8E0101CA52D68009500210022FA
:10279000002300240020194D696801F00C05F5B1F3
:1027A000042D02D0082D19D101E0154819E001AD22
:1027B000C1F38346AC5D01F4803555B10F4D6D68B2
:1027C000C5F340451DF805200D4D6543B5FBF2F3FB
:1027D00002E00C4D04FB05F3184602E000BF084878
:1027E00000BF00BF05B0F0BD0203040506070809DD
:1027F0000A0B0C0D0E0F1010010200000010024019
:1028000000127A0000093D00F8B504460CB9012019
:10281000F8BD207800F00100002878D0F848406822
:1028200000F00C0004280CD0F548406800F00C00C3
:10283000082811D1F248406800F48030B0F5803F9C
:102840000AD1EF48006800F4003000285FD06068CB
:1028500000285CD10120DBE700BF6068B0F5803F55
:1028600006D1E748006840F48030E549086028E078
:10287000606858B9E248006820F48030E049086098
:102880000846006820F4802008601AE06068B0F50F
:10289000A02F0BD1DA48006840F48020D8490860A6
:1028A0000846006840F4803008600AE0D4480068B8
:1028B00020F48030D24908600846006820F4802067
:1028C000086000BF606888B1FFF788FD054606E034
:1028D000FFF784FD401B642801D9032098E7C8480E
:1028E000006800F400300028F2D010E0FFF776FD19
:1028F000054606E0FFF772FD401B642801D903205E
:1029000086E7BF48006800F400300028F2D1207844
:1029100000F00200022857D1B948406800F00C00CE
:1029200050B1B748406800F00C00082818D1B448EE
:10293000406800F4803098B9B148006800F00200A7
:1029400020B12069012801D0012061E7AC4800686E
:1029500020F0F800616940EAC100A949086033E04D
:102960002069E8B10120A7490860FFF737FD054657
:1029700006E0FFF733FD401B022801D9032047E79B
:102980009F48006800F002000028F2D09C480068D0
:1029900020F0F800616940EAC1009949086013E03D
:1029A000002098490860FFF719FD054606E0FFF78B
:1029B00015FD401B022801D9032029E79048006833
:1029C00000F002000028F2D1207800F0080008286A
:1029D0002DD1A069B8B101208B490860FFF7FEFC3A
:1029E000054606E0FFF7FAFC401B022801D9032048
:1029F0000EE78348406A00F002000028F2D0012070
:102A000000F0F6FB13E000207F490860FFF7E6FCCA
:102A1000054606E0FFF7E2FC401B022801D903202F
:102A2000F6E67748406A00F002000028F2D12078EC
:102A300000F00400042873D100277148C06900F039
:102A4000805070B900BF6E48C06940F080506C493A
:102A5000C8610846C06900F08050009000BF00BF08
:102A600001276A48006800F48070B0B967480068C0
:102A700040F4807065490860FFF7B0FC054606E049
:102A8000FFF7ACFC401B642801D90320C0E65F4877
:102A9000006800F480700028F2D000BFE0680128D0
:102AA00006D15748006A40F001005549086227E006
:102AB000E06858B95248006A20F0010050490862A5
:102AC0000846006A20F00400086219E0E068052862
:102AD0000BD14B48006A40F004004949086208469F
:102AE000006A40F0010008620AE04548006A20F0F0
:102AF0000100434908620846006A20F004000862A9
:102B000000BFE068A0B1FFF769FC054609E0FFF7E8
:102B100065FC401B41F28831884202D9032077E6E8
:102B200022E03748006A00F002000028EFD012E0EF
:102B3000FFF754FC054608E0FFF750FC401B41F24C
:102B40008831884201D9032062E62D48006A00F0EE
:102B500002000028F0D1012F05D12948C06920F0DA
:102B600080502749C86100BFE069C8B32448406865
:102B700000F00C00082860D0E069022848D100204D
:102B800020490866FFF72AFC054606E0FFF726FC09
:102B9000401B022801D903203AE61948006800F0DA
:102BA00000700028F2D1206AB0F5803F07D11448A8
:102BB000406820F40030A168084311494860D4E916
:102BC000080108430E49496821F4741108430C496F
:102BD000486001200B490866FFF700FC054607E046
:102BE0003DE0FFF7FBFB401B022801D903200FE665
:102BF0000348006800F000700028F2D02FE00000C9
:102C00000010024000004242800442420070004036
:102C1000002014490866FFF7E1FB054606E0FFF7D0
:102C2000DDFB401B022801D90320F1E50E480068B6
:102C300000F000700028F2D111E0E069012800D115
:102C4000E6E50948466806F48031206A814204D1ED
:102C500006F47011606A814201D00120D8E500209D
:102C6000D6E50000000042420010024070B5044664
:102C70002546681EB0F1807F01D301200FE0681E59
:102C80004FF0E02148610F214FF0FF3000F098FD38
:102C900000204FF0E021886107200861002070BD0E
:102CA00010B504460CB9012010BD94F83D0028B9B8
:102CB000002084F83C00204600F025F8022084F82B
:102CC0003D00211D206800F0FBFA012084F8460039
:102CD00000BF84F83E0001213F20015540200155EE
:102CE0004120015500BF00BF012084F8420043206D
:102CF0000155442001554520015500BF012084F8AD
:102D00003D000020D0E77047014691F83D000128C2
:102D100001D001207047022081F83D000868C0689A
:102D200040F001000B68D860164B0868984213D039
:102D3000154B086898420FD00868B0F1804F0BD04F
:102D4000124B0868984207D0114B0868984203D08C
:102D5000104B086898420CD10868806800F00702A0
:102D6000062A0CD00868006840F001000B68186063
:102D700005E00868006840F001000B68186000205A
:102D8000C8E70000002C014000340140000400406E
:102D900000080040000C0040704700002DE9F0479B
:102DA0000446206805682068C668206847694FF0B7
:102DB0000008C14605F00F08B8F1000F0AD105F070
:102DC000200038B106F0200020B1204600F094FB2E
:102DD000BDE8F087B8F1000F71D007F0010018B915
:102DE00006F4907000286AD005F0010030B106F4B6
:102DF000807018B1E06B40F00100E06305F0040062
:102E000030B107F0010018B1E06B40F00200E06360
:102E100005F0020030B107F0010018B1E06B40F09E
:102E20000400E06305F0080048B106F0200010B986
:102E300007F0010018B1E06B40F00800E063E06BC0
:102E400068B305F0200028B106F0200010B120463C
:102E500000F052FB20684069C0F38019E06B00F07D
:102E6000080010B9B9F1000F22D0204600F024FB71
:102E70002068406900F04000B0B12068406920F04F
:102E8000400021684861606B50B11848616B48632D
:102E9000606BFEF745FF10B1606B416B88470CE03B
:102EA0002046FFF779FF08E02046FFF775FF04E0B2
:102EB0002046FFF771FF0020E06389E7FFE705F098
:102EC000800030B106F0800018B1204600F0E2FB2F
:102ED0007EE705F0400030B106F0400018B1204612
:102EE00000F0FAFA74E700BF72E70000A5340008AA
:102EF00010B504460CB9012010BDA06900B100E076
:102F000000BF94F8390028B9002084F83800204622
:102F100000F028F8242084F839002068C06820F4E4
:102F200000502168C860204600F036FB2068006928
:102F300020F49040216808612068406920F02A0050
:102F4000216848612068C06840F400502168C8606A
:102F50000020E063202084F8390084F83A00002043
:102F6000CAE7000010B586B00446284920688842A8
:102F70004AD100BF00BF2648806940F004002449C0
:102F800088610846806900F00400019000BF00BF1E
:102F900000BF00BF00BF0846806940F004008861A0
:102FA0000846806900F00400019000BF00BF00BF28
:102FB00000BF00BF0846806940F480408861084631
:102FC000806900F48040019000BF00BF00BF481539
:102FD000029002200390012004900320059002A992
:102FE0000C48FFF743F84FF48060029000200390F4
:102FF00002A90848FFF73AF82520FFF76CFA0322E8
:1030000011462520FFF777FA06B010BD00380140C1
:10301000001002400008014010B5034693F83A0042
:1030200020282FD101B10AB9012010BD00BF93F8AB
:103030003800012801D10220F7E7012083F8380089
:1030400000BF99629A85DA850020D863222083F830
:103050003A0000BF002083F8380000BF1868C0683D
:1030600040F480701C68E0601868406940F001001E
:103070001C6860611868C06840F020001C68E0604F
:103080000020D2E70220D0E71D4A0168914236D1E4
:103090001C49098801F4004189BB1A49098801F4D7
:1030A000804171B1184909780A2903D00021154AD5
:1030B000118024E01349098841F40041114A11802C
:1030C0001DE0114909780D2906D10E49098841F4FE
:1030D00080410C4A118012E00B490978094A128894
:1030E000C2F30D02094B995406490988491C054A47
:1030F000118011460988C72901DD00211180704720
:103100000038014024000020260000204800002054
:103110002DE9F84F04460E46174699464FF0000A2F
:1031200094F8390020285AD106B117B90120BDE81A
:10313000F88F00BF94F83800012801D10220F6E78B
:10314000012084F8380000BF0020E063212084F8CB
:103150003900FFF743F98246A784E784A068B0F5F9
:10316000805F04D1206910B90025B04602E03546E1
:103170004FF0000800BF002084F8380000BF1BE0BB
:103180005346002280212046CDF8009000F0B2FA8C
:1031900008B10320CBE745B9B8F80000C0F3080038
:1031A0002168486008F1020803E028782168486037
:1031B0006D1CE08C401EE084E08C0028E0D153467A
:1031C000002240212046CDF8009000F093FA08B18B
:1031D0000320ACE7202084F839000020A7E7022074
:1031E000A5E7704700BFFEE700BFFEE770477047E6
:1031F00008B508490968C9084FF47A72B1FBF2F1C1
:103200004143009100BF00BF00994A1E009200296F
:10321000F9D108BD0C000020704710B5FFF714F974
:1032200010BD000010B520480068006900F00100E2
:10323000002838D01D480078401C1C4908701C48E4
:103240000078401C1A4908701A480088401C194927
:10325000088019480078012800D100E000201349B7
:103260000978032901D1012100E000210840A8B11B
:1032700000200E49087011480078401C0F49087062
:1032800000F074FC0D480078C82804DB00200B49CE
:103290000870094908700020044908706FF00100A7
:1032A00001490968086110BD5C010020010000208F
:1032B0000200002004000020000000200700002081
:1032C00010B50268204B98420ED0204B98420BD08C
:1032D000B0F1804F08D01E4B984205D01D4B98424C
:1032E00002D01D4B984203D122F070024B681A4362
:1032F000154B98420ED0154B98420BD0B0F1804F31
:1033000008D0134B984205D0124B984202D0124B72
:10331000984203D122F44072CB681A4322F0800312
:103320004C6943EA040202608B68C3620B688362E3
:10333000054B984202D0054B984201D10B690363BB
:103340000123436110BD0000002C01400034014006
:103350000004004000080040000C004000B585B0AB
:1033600000BF00BF4C48806940F008004A498861AE
:103370000846806900F00800009000BF00BF00BF51
:1033800000BF00BF0846806940F008008861084619
:10339000806900F00800009000BF00BF00BF4FF43C
:1033A00070400190112002900020039003200490AF
:1033B00001A93A48FEF75AFE4FF4706001900020D0
:1033C0000290039001A93548FEF750FE344800787A
:1033D00000F0010030B100BF0122D1032F48FEF7F9
:1033E000F7FF0CE02E48007800F0010038B900BF6C
:1033F00000224FF400412948FEF7EAFF00BF2848A9
:10340000007800F0020030B100BF01229103234890
:10341000FEF7DEFF0CE02248007800F0020038B929
:1034200000BF00224FF480411C48FEF7D1FF00BFCF
:103430001B48007800F0040030B100BF01225103A6
:103440001648FEF7C5FF0CE01548007800F00400B0
:1034500038B900BF00224FF400511048FEF7B8FF02
:1034600000BF0F48007800F0080030B100BF012213
:1034700011030A48FEF7ACFF0CE00948007800F0A1
:10348000080038B900BF00224FF480510348FEF70E
:103490009FFF00BF05B000BD00100240000C0140BE
:1034A0000900002070B505466C6A0020E085E084C4
:1034B0002046FFF771FC70BD0168C96821F4907166
:1034C0000268D1600168496921F001010268516117
:1034D000202180F83A10704710B504462068C06873
:1034E00020F040002168C860202084F83900204680
:1034F000FFF777FE002010BD70B5044694F83A003F
:10350000222847D1A068B0F5805F0CD1206950B95E
:103510000025A66A20684068C0F308003080A06AD1
:10352000801CA06215E0A56A0026A068B0F5805F47
:1035300003D0A06828B9206918B9206840682870AD
:1035400004E02068406800F07F002870A06A401CFA
:10355000A062E08D401E80B2E085C8B92068C068D6
:1035600020F020002168C8602068C06820F48070C6
:103570002168C8602068406920F001002168486126
:10358000202084F83A002046FFF77EFD002070BD21
:103590000020FCE70220FAE770B5044621680969BB
:1035A00021F44051E2681143226811612269A16847
:1035B0001143626941EA02052168C96841F20C625F
:1035C000914329432268D1602168496921F44071FF
:1035D000A2691143226851612D4A2168914202D1AA
:1035E000FFF7B8F801E0FFF7A5F800EBC00101EB29
:1035F000001162689200B1FBF2F100EBC00202EB35
:10360000001263689B00B2FBF3F26423B2FBF3F297
:1036100002EBC20303EB0212A1EB8201322202EBA6
:1036200001116422B1FBF2F101F0F00100EBC002E4
:1036300002EB001263689B00B2FBF3F26423B2FB5F
:10364000F3F201EB021200EBC00101EB0011636821
:103650009B00B1FBF3F100EBC00303EB00136668C2
:10366000B600B3FBF6F36426B3FBF6F303EBC30635
:1036700006EB0313A1EB8301322303EB0111642357
:10368000B1FBF3F101F00F0111442268916070BDAC
:1036900000380140014691F83900212828D1886876
:1036A000B0F5805F0BD1086948B90A6A1088C0F389
:1036B00008000B685860086A801C086205E00B6A05
:1036C000581C086218780B685860C88C401E80B27D
:1036D000C88458B90868C06820F080000B68D860BA
:1036E0000868C06840F040000B68D8600020704750
:1036F0000220FCE72DE9F04104460D4617469846A6
:10370000069E21E0701CF8B12EB1FEF767FEA0EB1B
:103710000800B04218D92068C06820F4D070216831
:10372000C8602068406920F00100216848612020BD
:1037300084F8390084F83A0000BF002084F838008B
:1037400000BF0320BDE8F081206800682840A8423F
:1037500001D1012000E00020B842D3D00020F1E7E1
:1037600010B50648FFF71AFB00BF012204490348C1
:10377000FFF752FC0028F8D110BD00001001002016
:103780002600002000BFFEE7490050EAC12018BF14
:1037900004204A0D18BF40F0010040F2FF72B2EB66
:1037A000515F08BF40F00200012808BF05207047A4
:1037B00002480068C0F30220704700000CED00E0F2
:1037C00010B5002804DB0A07130E054A135406E05F
:1037D0000A07140E034A00F00F031B1FD45410BD38
:1037E00000E400E018ED00E030380A2801D20120A2
:1037F00070470020704700BF704770B50446002531
:1038000000F0DEF8054621462846FCF757FE08B1D1
:10381000042070BD0520FCE770B590B004460D464D
:103820002B46224608A16846FCF744FD40F6B83214
:103830000BA1684600F072F8064616B9002010B0D9
:1038400070BD0120FBE7000041542B41544B434C19
:10385000445354413D222573222C2225732200001B
:10386000434C4F554420434F4E4E4543544544002E
:1038700010B54FF4FA7205A105A000F04FF8044608
:103880000CB9002010BD0220FCE700000000000081
:1038900041542B41544B434C44434C5300000000D3
:1038A00000B585B000BF00BF0D48806940F008003A
:1038B0000B4988610846806900F00800009000BF4D
:1038C00000BF00BF10200190012002900020039053
:1038D0000320049001A90348FEF7C8FB05B000BD12
:1038E00000100240000C014010B500BF0022102162
:1038F0000948FEF76DFD00BF642000F0DBF800BF53
:10390000012210210448FEF763FD00BF4FF4FA7056
:1039100000F0D0F810BD0000000C01402DE9F0418E
:1039200005460E461446002700F05EF829460FA013
:1039300000F020F806B114B90020BDE8F08110E0D5
:1039400000F03EF8074647B131463846FCF7B6FD71
:1039500008B10020F1E700F047F8641E012000F0F4
:10396000A9F8002CECD10220E7E7000025730D0A2E
:10397000000000000FB438B505A800900E48009A6A
:103980000499FCF785FC002000900B48FCF7A8FD8B
:1039900084B24FF0FF33224607490848FFF7B8FBCF
:1039A00000BF064800680068C0F380100028F8D007
:1039B00038BC5DF814FB0000A401002010010020B9
:1039C0000748008800F4004040B1002004490988FD
:1039D000C1F30D01034A5054104670470020FCE724
:1039E0002400002048000020002001490880704782
:1039F0002400002070B501250224FFF739FF04469A
:103A0000022C18D115E0FFF733FF044604B911E08A
:103A100000BF002208211A48FEF7DAFC00BFC820C8
:103A200000F048F800BF012208211548FEF7D0FC3D
:103A300000BFE8E700BF002C21D112A114A0FFF7BE
:103A4000EBFE0546DDB118E00EA111A0FFF7E4FE84
:103A5000054605B912E000BF002208210848FEF71C
:103A6000B7FC00BF4FF47A7000F024F800BF0122C9
:103A700008210348FEF7ACFC00BFE5E700BF70BDBE
:103A80000008014031323334353637380000000049
:103A900036303930343732393537383039313237DA
:103AA00037383235000000000149086070470000D7
:103AB0001C00002010B504464FF47A7104FB01F09D
:103AC00000F002F810BD000070B5034600224FF070
:103AD000E02675690D4E366803FB06F44FF0E026CC
:103AE000B16910E04FF0E026B06988420BD08842FF
:103AF00002D20E1A324402E02E1A0E44324401461B
:103B0000A24200D300E0EDE700BF70BD1C00002022
:103B100038B504460D4600BF00BF1248C06940F0EA
:103B200001001049C8610846C06900F0010000901A
:103B300000BF00BF00BF88040B490860084645600D
:103B400000218160C460FFF7ABF8032201211C2033
:103B5000FEF7D1FC1C20FEF7BEFC0348FFF7D4F8AB
:103B600038BD0000001002405C01002010B5024882
:103B7000FEF762FC10BD00005001002070B5044645
:103B80000D46044804490860084644608560FEF715
:103B90002BFC70BD003000405001002000B585B006
:103BA00000BF00BF1F48806940F004001D498861C4
:103BB0000846806900F00400009000BF00BF00BF0D
:103BC0004FF4F470019001200290039003200490C0
:103BD00001A91548FEF74AFA00BF01220821124840
:103BE000FEF7F6FB00BF00BF012220210E48FEF7C2
:103BF000EFFB00BF00BF012240210B48FEF7E8FBAE
:103C000000BF00BF012280210748FEF7E1FB00BF93
:103C100000BF012211020448FEF7DAFB00BF05B025
:103C200000BD00000010024000080140FEF718FC33
:103C30004FF4E01000F0CCFD0122F949F94800F002
:103C400021FDF7480078F8490870FFF787FB482006
:103C5000FFF72AFF4FF4E13000F0EEFDFFF79EFF83
:103C60004FF4FA70FFF726FF00BF00220821EF484B
:103C7000FEF7AEFB00BF4FF4FA70FFF71BFF00BF6B
:103C800001220821E948FEF7A3FB00BFFFF708FE69
:103C9000FFF72AFE4FF4FA70FFF70CFF00BF002277
:103CA0000821E248FEF794FB00BF4FF4FA70FFF7DB
:103CB00001FF00BF01220821DC48FEF789FB00BF9D
:103CC0004FF4FA70FFF7F6FE00BF00220821D74834
:103CD000FEF77EFB00BF4FF4FA70FFF7EBFE00BF6C
:103CE00001220821D148FEF773FB00BF4FF4FA70A0
:103CF000FFF7E0FE00BF00220821CC48FEF768FB7A
:103D000000BF4FF4FA70FFF7D5FE00BF0122082173
:103D1000C648FEF75DFB00BFFFF76CFE41F61F4192
:103D200040F2E730FFF7F4FE40F271210420FFF784
:103D300025FFB8E3BE48008800F4004000287DD08D
:103D4000B7480078B84908700020BA490870BAA08E
:103D5000FFF753FD042872D10120B6490870010213
:103D6000B848FEF723FB01281DD100BFC103B548A9
:103D7000FEF724FB00BF4FF40041B248FEF716FBEC
:103D800028B1A748007840F00100A54908704FF419
:103D90000041AC48FEF70AFB28B9A148007800F0C2
:103DA000FE009F4908704FF40071A648FEF7FEFA26
:103DB00001281DD100BF8103A248FEF7FFFA00BF12
:103DC0004FF480419F48FEF7F1FA28B194480078FB
:103DD00040F00200924908704FF480419948FEF784
:103DE000E5FA28B98E48007800F0FD008C4908708B
:103DF0004FF480619348FEF7D9FA01281DD100BF26
:103E000041039048FEF7DAFA00BF4FF400518D48A5
:103E1000FEF7CCFA28B18248007840F004008049CF
:103E200008704FF400518748FEF7C0FA28B97C4863
:103E3000007800F0FB007A49087001E0FFE224E01E
:103E40004FF400617F48FEF7B1FA01281DD100BF91
:103E500001037C48FEF7B2FA00BF4FF48051794865
:103E6000FEF7A4FA28B16E48007840F008006C49CB
:103E700008704FF480517348FEF798FA28B96848E3
:103E8000007800F0F700664908706FA0FFF7B5FCF6
:103E900004287DD101206749087001026948FEF7B6
:103EA00085FAF0B900BF4FF400416648FEF786FA84
:103EB00000BF4FF400416348FEF778FA28B1584834
:103EC000007840F00100564908704FF400415D4809
:103ED000FEF76CFA28B95248007800F0FE0050490D
:103EE00008704FF400715748FEF760FAF0B900BF50
:103EF0004FF480415348FEF761FA00BF4FF4804110
:103F00005048FEF753FA28B14548007840F00200C7
:103F1000434908704FF480414A48FEF747FA28B9F0
:103F20003F48007800F0FD003D4908704FF4806183
:103F30004448FEF73BFAF0B900BF4FF40051414846
:103F4000FEF73CFA00BF4FF400513E48FEF72EFA50
:103F500028B13348007840F00400314908704FF42C
:103F600000513848FEF722FA28B92D48007800F0B1
:103F7000FB002B4908704FF400613248FEF716FA37
:103F800030B900BF4FF480512E48FEF717FA00E019
:103F900018E000BF4FF480512A48FEF707FA28B115
:103FA0001F48007840F008001D4908704FF4805108
:103FB0002448FEF7FBF928B91948007800F0F7000B
:103FC0001749087024A0FFF718FC042826D1012007
:103FD0001849087001021B48FEF7E8F918B121A042
:103FE000FFF7C8FC02E025A0FFF7C4FC4FF4007106
:103FF0001448FEF7DBF918B125A0FFF7BBFC02E07F
:1040000029A0FFF7B7FC4FF480610E48FEF7CEF908
:1040100018B12AA0FFF7AEFC5FE05BE06AE00000A9
:104020000900002000800008060000200008014070
:1040300024000020080000207475726E5F6F6E5FB0
:10404000616C6C00000C01407475726E5F6F666687
:104050005F616C6C000000006765745F7374615F82
:10406000616C6C004C494748545F315F4E4F575F5D
:1040700049535F4F46460D0A000000004C4947482F
:10408000545F315F4E4F575F49535F4F4E0D0A00EB
:104090004C494748545F325F4E4F575F49535F4F1B
:1040A00046460D0A000000004C494748545F325F05
:1040B0004E4F575F49535F4F4E0D0A004C494748DA
:1040C000545F335F4E4F575F49535F4F46460D0A6B
:1040D00000000000F5A0FFF74DFC4FF40061F84828
:1040E000FEF764F918B1F7A0FFF744FC02E0FBA06B
:1040F000FFF740FCFE48007800287DD1FDA0FFF7C7
:104100007CFB042823D18101ED48FEF74FF90128FB
:104110001DD100BFC103EA48FEF750F900BF4FF4BC
:104120000041E748FEF742F928B1F548007840F031
:104130000100F34908704FF40041E148FEF736F9F9
:1041400028B9EF48007800F0FE00ED490870EDA0B6
:10415000FFF753FB042823D18101D948FEF726F944
:10416000F0B900BF4FF40041D548FEF727F900BF72
:104170004FF40041D248FEF719F928B1E048007821
:1041800040F00100DE4908704FF40041CC48FEF7D2
:104190000DF928B9DA48007800F0FE00D849087017
:1041A000DBA0FFF72AFB04280DD18101C448FEF7EC
:1041B000FDF820B1AFF25410FFF7DCFB03E0AFF2E3
:1041C0004410FFF7D7FBD5A0FFF717FB042825D134
:1041D000C101BB48FEF7EAF801281FD100BF8103E7
:1041E000B748FEF7EBF800BF4FF48041B448FEF744
:1041F000DDF838B1C24800E00FE1007840F002007D
:10420000BF4908704FF48041AD48FEF7CFF828B998
:10421000BB48007800F0FD00B9490870C2A0FFF764
:10422000ECFA042823D1C101A548FEF7BFF8F0B984
:1042300000BF4FF48041A248FEF7C0F800BF4FF422
:1042400080419F48FEF7B2F828B1AD48007840F0B1
:104250000200AB4908704FF480419948FEF7A6F878
:1042600028B9A748007800F0FD00A5490870B1A062
:10427000FFF7C3FA04280DD1C1019148FEF796F863
:1042800020B1AFF2F410FFF775FB03E0AFF2E810D6
:10429000FFF770FBAAA0FFF7B0FA042823D10102B0
:1042A0008748FEF783F801281DD100BF41038448E9
:1042B000FEF784F800BF4FF400518148FEF776F80E
:1042C00028B18F48007840F004008D4908704FF401
:1042D00000517B48FEF76AF828B98948007800F059
:1042E000FB008749087099A0FFF787FA042823D1BB
:1042F00001027348FEF75AF8F0B900BF4FF40051BD
:104300006F48FEF75BF800BF4FF400516C48FEF7B2
:104310004DF828B17A48007840F0040078490870D8
:104320004FF400516648FEF741F828B97448007808
:1043300000F0FB007249087087A0FFF75EFA0428BE
:104340000CD101025E48FEF731F820B1AFF29420A3
:10435000FFF710FB02E055A0FFF70CFB81A0FFF771
:104360004CFA042823D141025548FEF71FF80128D2
:104370001DD100BF01035248FEF720F800BF4FF4E3
:1043800080514F48FEF712F828B15D48007840F0A0
:1043900008005B4908704FF480514948FEF706F861
:1043A00028B95748007800F0F7005549087070A008
:1043B000FFF723FA042823D141024148FDF7F6FF15
:1043C000F0B900BF4FF480513D48FDF7F7FF00BF43
:1043D0004FF480513A48FDF7E9FF28B1484800788A
:1043E00040F00800464908704FF480513448FDF70A
:1043F000DDFF28B94248007800F0F7004049087016
:104400005EA0FFF7FAF904280BD141022C48FDF712
:10441000CDFF18B12BA0FFF7ADFA02E02FA0FFF7F8
:10442000A9FA3748007858490978884204D001220F
:104430003349564800F03AF900205549088055485C
:104440000078052830DB0020524908704FF4807155
:104450001B48FDF7ABFF30B100BF012220214E48C1
:10446000FDF7B6FF00BF4FF480711548FDF79EFFC2
:1044700030B900BF002220214748FDF7A9FF00BF47
:104480004FF400710E48FDF791FF30B100BF0122DB
:1044900040214148FDF79CFF00BF4FF400710848E0
:1044A000FDF784FF7AE0DCE0B8E000004C494748C3
:1044B000545F335F4E4F575F49535F4F4E0D0A00B5
:1044C000000C01404C494748545F345F4E4F575FE2
:1044D00049535F4F46460D0A000000004C494748CB
:1044E000545F345F4E4F575F49535F4F4E0D0A0084
:1044F000080000207475726E5F6F6E5F31000000FF
:10450000090000207475726E5F6F66665F3100008F
:104510006765745F7374615F310000007475726E5B
:104520005F6F6E5F320000007475726E5F6F66665B
:104530005F3200006765745F7374615F3200000072
:104540007475726E5F6F6E5F330000007475726E0B
:104550005F6F66665F3300006765745F7374615FE9
:10456000330000007475726E5F6F6E5F3400000080
:104570007475726E5F6F66665F3400006765745FA6
:104580007374615F340000000600002000800008A2
:1045900024000020020000200008014030B900BFC4
:1045A000002240213048FDF713FF00BF4FF4806127
:1045B0002E48FDF7FBFE30B100BF012280212A48C2
:1045C000FDF706FF00BF4FF480612848FDF7EEFEBF
:1045D00030B900BF002280212348FDF7F9FE00BF5B
:1045E0004FF400612148FDF7E1FE30B100BF012228
:1045F00011021D48FDF7ECFE00BF4FF400611B489F
:10460000FDF7D4FE38B900BF00224FF48071164880
:10461000FDF7DEFE00BF0020154908701548007840
:10462000052807DB002013490870FFF79FFA0020D8
:10463000104908701048008840F6B831884210DBF5
:1046400000200D49088001200C490870FFF7D2F9BD
:1046500000200A4908700A4908700749088007497C
:104660000870FFF767BB000000080140000C014024
:1046700002000020010000200400002000000020B3
:104680000700002030B503460C461546002207E01F
:10469000184600F008F824F812009B1C501C82B247
:1046A000AA42F5DB30BD0146088870472DE9F04F7E
:1046B00085B080468A461746B8F1006F02D3B8F13C
:1046C000406F02D305B0BDE8F08FFDF7B7FCA8F14D
:1046D000006B4FEA9B25CBF34809C9F50074A7424C
:1046E00000DC3C4655E04FF0006101EB85208A1468
:1046F0002B49FFF7C7FF00260BE009EB060028490E
:1047000031F810004FF6FF71884200D003E0701CB2
:1047100086B2A642F1DB00BFA64222DA0020019059
:10472000012002900490C00600EB852003906946AA
:1047300001A8FDF7C9FB002608E03AF8160006EBD1
:104740000901174A22F81100701C86B2A642F4DB58
:104750004FF0006101EB85208A14114900F022F826
:1047600004E022465146404600F01CF8A74200D122
:1047700010E06D1C4FF000090AEB440A08EB4408F6
:10478000381B87B2B7F5007F02DD4FF4007400E0FC
:104790003C46A8E700BFFDF7EFFB00BF92E7000033
:1047A000E40100202DE9F04104460E46174600259D
:1047B0000AE036F815C06246002321460120FDF7C5
:1047C000E5FBA41C681C85B2BD42F2DBBDE8F081AC
:1047D00030B58FB005460124282105A8FBF79FFEC0
:1047E00014216846FBF79BFE01200590000406900B
:1047F0000020079002200C90C1030D910E9505A892
:10480000FEF702F804460CB100BFFEE70F2000904F
:1048100002200190002002904FF48060039000205D
:10482000049002216846FDF7B9FE04460CB100BFB2
:10483000FEE70FB030BD000010B5044609480A4934
:1048400008600846446000218160C16001618161A7
:104850000C214161FEF74CFB012204490248FEF79E
:10486000DBFB10BD003801401001002026000020B5
:1048700010B500290AD00878002807D005487844E8
:10488000FCF79EFD002801D0002010BD02487844AE
:1048900010BD00008A0100008201000010B500294F
:1048A0000AD00878002807D005487844FCF788FD2E
:1048B000002801D0002010BD0248784410BD00003F
:1048C0007A01000072010000FCF7A5B9FCF7DABA22
:1048D00000000000000000000102030406070809B0
:1048E00000000000010203040400000800000000B2
:1048F00000000002000100001000000000000000A5
:104900000000000030313233343536373839414217
:104910004344454640305800303132333435363721
:104920003839616263646566403078003031323313
:1049300034353637383961626364656678700030C3
:10494000313233343536373839414243444546589D
:104950005000000002400000000000A00000000025
:1049600005400000000000C8000000000C400000EE
:104970000000409C00000000194000000020BCBE68
:104980000000000034400000BFC91B8E000000047E
:10499000B5400000504BCFD06607E2CF01000000C9
:1049A0006C4100003E8251AADFEEA73401000000F6
:1049B000D9420000DCB5A0E23A301F97FFFFFFFFAD
:1049C000B4450000FD25A0C8E9A3C14FFFFFFFFFCC
:1049D000FF3F00000000008000000000FF3F0000DB
:1049E0000000008000000000344B000800000020A0
:1049F00028000000280100085C4B00082800002067
:104A0000200A0000440100081C00000043000000D0
:104A1000F8FFFFFF0C0000000E0000000F00000078
:104A20002E0000001001000043000000F8FFFFFF0F
:104A300000404040404040404040414141414140B1
:104A40004040404040404040404040404040404066
:104A500040050202020202020202020202020202F5
:104A600002202020202020202020200202020202FA
:104A70000202909090909090101010101010101052
:104A8000101010101010101010101010020202025E
:104A900002028888888888880808080808080808A2
:104AA000080808080808080808080808020202029E
:104AB00040000000000000000000000000000000B6
:104AC00000000000000000000000000000000000E6
:104AD00000000000000000000000000000000000D6
:104AE00000000000000000000000000000000000C6
:104AF00000000000000000000000000000000000B6
:104B000000000000000000000000000000000000A5
:104B10000000000000000000000000000000000095
:104B20000000000000000000000000000000000085
:104B30000000000000000000000000000000000075
:104B40000024F4000000000010000000010000003C
:0C4B500000000000000000000000000059
:04000005080000ED02
:00000001FF
